:100000000C945D000C9413030C94EC020C9485008A
:100010000C9485000C9485000C9485000C9485004C
:100020000C9485000C9485000C9485000C9485003C
:100030000C9485000C9485000C9485000C9485002C
:100040000C94A2020C9485000C9470020C944A0249
:100050000C9485000C9485000C9485000C9485000C
:100060000C9485000C9485000000000024002700FB
:100070002A0000000000250028002B0004040404CE
:100080000404040402020202020203030303030342
:10009000010204081020408001020408102001021F
:1000A00004081020000000080002010000030407FB
:1000B0000000000000000000460611241FBECFEF24
:1000C000D8E0DEBFCDBF11E0A0E0B1E0E0ECF1E1AF
:1000D00002C005900D92A832B107D9F721E0A8E23D
:1000E000B1E001C01D92AC3EB207E1F710E0CDE5F2
:1000F000D0E004C02197FE010E94D808CC35D1077A
:10010000C9F70E943A030C94DE080C940000E7EA59
:10011000F0E02491E3E9F0E09491EFE7F0E0E4917E
:10012000EE23C9F0222339F0233001F1A8F4213065
:1001300019F1223029F1F0E0EE0FFF1FEE58FF4FCA
:10014000A591B4912FB7F894EC91811126C09095A8
:100150009E239C932FBF08952730A9F02830C9F023
:10016000243049F7209180002F7D03C0209180002A
:100170002F7720938000DFCF24B52F7724BDDBCFEE
:1001800024B52F7DFBCF2091B0002F772093B000B6
:10019000D2CF2091B0002F7DF9CF9E2BDACFAF9236
:1001A000BF92CF92DF92EF92FF920F931F93CF9364
:1001B000DF936C017B018B01040F151FEB015E01C6
:1001C000AE18BF08C017D10759F06991D601ED915B
:1001D000FC910190F081E02DC6010995892B79F7FA
:1001E000C501DF91CF911F910F91FF90EF90DF90AC
:1001F000CF90BF90AF900895FC01538D448D252F73
:1002000030E0842F90E0821B930B541710F0CF96B0
:10021000089501970895FC01918D828D981761F0E2
:10022000A28DAE0FBF2FB11D5D968C91928D9F5FF9
:100230009F73928F90E008958FEF9FEF0895FC01D8
:10024000918D828D981731F0828DE80FF11D858D8B
:1002500090E008958FEF9FEF0895FC01918D228D1E
:10026000892F90E0805C9F4F821B91098F739927A3
:1002700008958FE491E00E942D0121E0892B09F47B
:1002800020E0822F089580E090E0892B29F00E94E1
:10029000390181110C9400000895FC01A48DA80F70
:1002A000B92FB11DA35ABF4F2C91848D90E00196B8
:1002B0008F739927848FA689B7892C93A089B189D8
:1002C0008C91837080648C93938D848D981306C079
:1002D0000288F389E02D80818F7D80830895EF92DD
:1002E000FF920F931F93CF93DF93EC0181E0888FF0
:1002F0009B8D8C8D98131AC0E889F989808185FFC0
:1003000015C09FB7F894EE89FF896083E889F98961
:1003100080818370806480839FBF81E090E0DF9163
:10032000CF911F910F91FF90EF900895F62E0B8DB6
:1003300010E00F5F1F4F0F731127E02E8C8D8E1171
:100340000CC00FB607FCFACFE889F989808185FFD8
:10035000F5CFCE010E944D01F1CFEB8DEC0FFD2FBB
:10036000F11DE35AFF4FF0829FB7F8940B8FEA8993
:10037000FB8980818062CFCFCF93DF93EC01888DA2
:100380008823B9F0AA89BB89E889F9898C9185FD10
:1003900003C0808186FD0DC00FB607FCF7CF8C919E
:1003A00085FFF2CF808185FFEDCFCE010E944D0108
:1003B000E9CFDF91CF9108950895209131013091D7
:1003C000320180E197E2821B930B8230910538F075
:1003D000880F991F880F991F05970197F1F781E002
:1003E0000E9487008BE891E00197F1F780E00C9480
:1003F0008700FC0101900020E9F73197AF01481B0D
:10040000590BBC018FE491E00C94CF008F929F9226
:10041000AF92BF920F931F93CF93DF93CDB7DEB709
:10042000A1970FB6F894DEBF0FBECDBF19A2423020
:1004300008F44AE08E010F5D1F4F842E912CB12CE1
:10044000A12CA50194010E94B608E62FB901CA01AA
:10045000EA30F4F4E05DD801EE938D01232B242BD8
:10046000252B79F790E080E0109719F0CD010E94DC
:10047000F901A1960FB6F894DEBF0FBECDBFDF9194
:10048000CF911F910F91BF90AF909F908F90089543
:10049000E95CE1CF1F920F920FB60F9211242F93B8
:1004A0003F934F935F936F937F938F939F93AF93FC
:1004B000BF93EF93FF938FE491E00E944D01FF9172
:1004C000EF91BF91AF919F918F917F916F915F91CC
:1004D0004F913F912F910F900FBE0F901F90189545
:1004E0001F920F920FB60F9211242F938F939F9309
:1004F000EF93FF93E0915F01F09160018081E091C3
:100500006501F091660182FD1BC0908180916801B8
:100510008F5F8F7320916901821741F0E09168012C
:10052000F0E0E15BFE4F958F80936801FF91EF91C2
:100530009F918F912F910F900FBE0F901F90189544
:100540008081F4CF1F920F920FB60F9211242F9338
:100550003F938F939F93AF93BF9380912D01909181
:100560002E01A0912F01B091300130912C0123E098
:10057000230F2D3758F50196A11DB11D20932C0195
:1005800080932D0190932E01A0932F01B093300101
:100590008091280190912901A0912A01B0912B010D
:1005A0000196A11DB11D8093280190932901A0936C
:1005B0002A01B0932B01BF91AF919F918F913F91F1
:1005C0002F910F900FBE0F901F90189526E8230FC4
:1005D0000296A11DB11DD2CF1F920F920FB60F929E
:1005E00011242F933F934F935F936F937F938F9338
:1005F0009F93AF93BF93EF93FF93E0910201F0912C
:1006000003010995FF91EF91BF91AF919F918F9158
:100610007F916F915F914F913F912F910F900FBEFE
:100620000F901F9018951F920F920FB60F921124E2
:100630002F933F934F935F936F937F938F939F93EA
:10064000AF93BF93EF93FF93E0910001F09101010D
:100650000995FF91EF91BF91AF919F918F917F91FC
:100660006F915F914F913F912F910F900FBE0F901F
:100670001F901895CF93DF9300D000D0CDB7DEB791
:10068000789484B5826084BD84B5816084BD85B56D
:10069000826085BD85B5816085BD80916E00816079
:1006A00080936E001092810080918100826080931F
:1006B0008100809181008160809381008091800021
:1006C0008160809380008091B10084608093B1004C
:1006D0008091B00081608093B00080917A00846046
:1006E00080937A0080917A00826080937A00809172
:1006F0007A00816080937A0080917A00806880938C
:100700007A001092C100E0915F01F091600182E0F7
:100710008083E0915B01F0915C011082E0915D01CA
:10072000F0915E018FEC808310926701E09163018C
:10073000F091640186E08083E0916101F0916201B3
:10074000808180618083E0916101F091620180810C
:1007500088608083E0916101F0916201808180680E
:100760008083E0916101F091620180818F7D8083BF
:10077000EEE9F0E02491EAE8F0E084918823C9F002
:1007800090E0880F991FFC01E859FF4F6591749123
:10079000FC01EE58FF4FA591B4919FB7F894FB016F
:1007A00080812095822380838C91E22FE823EC9333
:1007B0009FBFE3E9F0E02491EFE7F0E08491882324
:1007C00099F090E0880F991FFC01E859FF4FA5911F
:1007D000B491FC01EE58FF4F859194918FB7F89436
:1007E000EC91E22BEC938FBF8DED91E090930101A2
:1007F0008093000180916900836080936900E89A8A
:1008000000E010E088EE282E83E0382E8FB7F894B1
:1008100040912D0150912E0160912F017091300176
:100820008FBF80914B0190914C01A0914D01B091EF
:100830004E01481B590B6A0B7B0B44365105610571
:10084000710508F461C18C599F4FAF4FBF4F809322
:100850004B0190934C01A0934D01B0934E01F0E4F5
:10086000F0937C0080917A00806480937A0080917C
:100870007A0086FDFCCF8091780060917900762F18
:10088000682F072E000C880B990B0E948F0729E216
:100890003CE54BEE51E40E94E50620E030E048ECF8
:1008A00051E40E9474066B017C01C0924701D09212
:1008B0004801E0924901F0924A016091040170916F
:1008C0000501072E000C880B990B0E948F07A701CA
:1008D00096010E94730660934301709344018093D4
:1008E00045019093460180913F0190914001A09174
:1008F0004101B091420180933B0190933C01A09350
:100900003D01B0933E012FB7F89460912D01709195
:100910002E0180912F01909130012FBF0E948D07F1
:1009200060933F0170934001809341019093420195
:1009300020913B0130913C0140913D0150913E019D
:100940000E94730620E030E04AE754E40E94E50686
:100950006B017C018090430190904401A09045017F
:10096000B09046018091370190913801A0913901F2
:10097000B0913A0189839A83AB83BC839C01AD011A
:10098000C501B4010E947406A70196010E944408A3
:1009900020E030E040E05FE30E9444082091330112
:1009A0003091340140913501509136010E94740616
:1009B0002B013C0120E030E44CE156E40E943F086A
:1009C00087FFAEC0409233015092340160923501EE
:1009D0007092360120E030E44CE156EC6091330136
:1009E0007091340180913501909136010E94E006AA
:1009F000181664F080E090E4ACE1B6EC809333012B
:100A000090933401A0933501B093360120E030E09B
:100A10004AEF53E4609133017091340180913501C4
:100A2000909136010E9444082B013C0120E030E007
:100A300046E953E4C501B4010E9444089B01AC019E
:100A4000C301B2010E9474062B013C0129813A8145
:100A50004B815C81C501B4010E947306A701960118
:100A60000E94E50620E030E048EC51E40E94440892
:100A70009B01AC01C301B2010E9474066B017C01B1
:100A800020E030E64AEE55E40E943F0887FD55C05D
:100A9000ACE4BDE1B0933201A09331018092370103
:100AA00090923801A0923901B0923A01C09047016A
:100AB000D0904801E0904901F0904A01A7019601C9
:100AC000C701B6010E94B108882309F44DC088E12E
:100AD00091E00E94F90184E291E00E94F9018FE423
:100AE00091E00E942D01892BD1F38FE491E00E94C7
:100AF0002D011816190644F48FE491E00E940B01B1
:100B000090930501809304010115110509F47ECE2F
:100B10000E943901882309F479CE0E94000076CE24
:100B200080E090E4ACE1B6E480933301909334012B
:100B3000A0933501B09336014DCF20E030E0A901FC
:100B4000C701B6010E94E00618162CF0309232015F
:100B500020923101A3CFC701B6010E9457077093BD
:100B60003201609331019ACF46015701E894B7F8FA
:100B70002FEF3FEF4FE75FE7C501B4010E94B108D7
:100B800081110DC02FEF3FEF4FE75FE7C501B401C3
:100B90000E94E00618161CF48CE191E09ACF2FEF2A
:100BA0003FEF4FE75FE4C701B6010E943F08181608
:100BB0001CF480E291E08DCF2FEF3FEF4FE75FEC29
:100BC000C701B6010E94E00687FDF3CF20E030E0C8
:100BD000A901C701B6010E94E00687FF09C06DE2C6
:100BE0008FE491E00E946F01F7FAF094F7F8F09427
:100BF0002AE037ED43EA5BE3C701B6010E947406C1
:100C00004B015C010E945E076B017C010E948D0715
:100C10009B01AC01C501B4010E9473064B015C014C
:100C20004AE0C701B6010E9406026EE28FE491E03D
:100C30000E946F0120E030E040E251E4C501B401C0
:100C40000E9444084B015C010E945E076B01F12C7D
:100C5000E12C4AE0C701B6010E940602C701B601B5
:100C60000E948D079B01AC01C501B4010E9473066F
:100C700020E030E040E251E40E9444080E945E0718
:100C800090E080E04AE00E94060225CFEFE4F1E028
:100C90001382128288EE93E0A0E0B0E08483958313
:100CA000A683B7838AE091E09183808385EC90E00E
:100CB0009587848784EC90E09787868780EC90E026
:100CC000918B808B81EC90E0938B828B82EC90E017
:100CD000958B848B86EC90E0978B868B118E128E91
:100CE000138E148E08955058BB27AA270E948B0696
:100CF0000C9405080E94F70738F00E94FE0720F0C8
:100D000039F49F3F19F426F40C94F4070EF4E0959F
:100D1000E7FB0C94EE07E92F0E94160858F3BA1768
:100D2000620773078407950720F079F4A6F50C9401
:100D300038080EF4E0950B2EBA2FA02D0B01B90147
:100D400090010C01CA01A0011124FF27591B99F041
:100D5000593F50F4503E68F11A16F040A22F232F4D
:100D6000342F4427585FF3CF469537952795A7959D
:100D7000F0405395C9F77EF41F16BA0B620B730B44
:100D8000840BBAF09150A1F0FF0FBB1F661F771FB5
:100D9000881FC2F70EC0BA0F621F731F841F48F46A
:100DA000879577956795B795F7959E3F08F0B0CFF3
:100DB0009395880F08F09927EE0F979587950895DA
:100DC0000E94CA0708F481E008950E94F9060C9475
:100DD00005080E94FE0758F00E94F70740F029F42A
:100DE0005F3F29F00C94EE0751110C9439080C94D4
:100DF000F4070E94160868F39923B1F3552391F381
:100E0000951B550BBB27AA2762177307840738F079
:100E10009F5F5F4F220F331F441FAA1FA9F335D0D6
:100E20000E2E3AF0E0E832D091505040E695001C8A
:100E3000CAF72BD0FE2F29D0660F771F881FBB1F44
:100E4000261737074807AB07B0E809F0BB0B802D22
:100E5000BF01FF2793585F4F3AF09E3F510578F04E
:100E60000C94EE070C9439085F3FE4F3983ED4F3FA
:100E7000869577956795B795F7959F5FC9F7880F22
:100E8000911D9695879597F90895E1E0660F771F74
:100E9000881FBB1F621773078407BA0720F0621B05
:100EA000730B840BBA0BEE1F88F7E09508950E9430
:100EB0005E076894B1110C94390808950E941E08C9
:100EC00088F09F5798F0B92F9927B751B0F0E1F00B
:100ED000660F771F881F991F1AF0BA95C9F714C0BB
:100EE000B13091F00E943808B1E008950C943808B0
:100EF000672F782F8827B85F39F0B93FCCF38695F4
:100F000077956795B395D9F73EF490958095709550
:100F100061957F4F8F4F9F4F0895E89409C097FBCD
:100F20003EF490958095709561957F4F8F4F9F4FC0
:100F30009923A9F0F92F96E9BB279395F695879504
:100F400077956795B795F111F8CFFAF4BB0F11F4C7
:100F500060FF1BC06F5F7F4F8F4F9F4F16C088236E
:100F600011F096E911C0772321F09EE8872F762FA4
:100F700005C0662371F096E8862F70E060E02AF0E5
:100F80009A95660F771F881FDAF7880F96958795D1
:100F900097F90895990F0008550FAA0BE0E8FEEFA6
:100FA00016161706E807F907C0F012161306E4072D
:100FB000F50798F0621B730B840B950B39F40A2626
:100FC00061F0232B242B252B21F408950A2609F404
:100FD000A140A6958FEF811D811D089597F99F6708
:100FE00080E870E060E008959FEF80EC08950024B1
:100FF0000A941616170618060906089500240A947E
:1010000012161306140605060895092E0394000C03
:1010100011F4882352F0BB0F40F4BF2B11F460FF92
:1010200004C06F5F7F4F8F4F9F4F089557FD9058BB
:10103000440F551F59F05F3F71F04795880F97FB9C
:10104000991F61F09F3F79F0879508951216130656
:101050001406551FF2CF4695F1DF08C01616170685
:101060001806991FF1CF86957105610508940895BA
:10107000E894BB2766277727CB0197F908950E944C
:10108000CA0708F48FEF08950E9457080C940508CA
:101090000E94F70738F00E94FE0720F0952311F018
:1010A0000C94EE070C94F40711240C9439080E9458
:1010B000160870F3959FC1F3950F50E0551F629F7E
:1010C000F001729FBB27F00DB11D639FAA27F00DA1
:1010D000B11DAA1F649F6627B00DA11D661F829FC8
:1010E0002227B00DA11D621F739FB00DA11D621FAD
:1010F000839FA00D611D221F749F3327A00D611DCA
:10110000231F849F600D211D822F762F6A2F1124AB
:101110009F5750409AF0F1F088234AF0EE0FFF1FDE
:10112000BB1F661F771F881F91505040A9F79E3F35
:10113000510580F00C94EE070C9439085F3FE4F3FE
:10114000983ED4F3869577956795B795F795E7958B
:101150009F5FC1F7FE2B880F911D9695879597F994
:1011600008950E94CA07880B990B0895A1E21A2ED0
:10117000AA1BBB1BFD010DC0AA1FBB1FEE1FFF1F3B
:10118000A217B307E407F50720F0A21BB30BE40B8B
:10119000F50B661F771F881F991F1A9469F76095D2
:1011A0007095809590959B01AC01BD01CF0108958C
:1011B000EE0FFF1F0590F491E02D0994F894FFCFF6
:1011C000DC01DC011E00000000006F01CF00FC000C
:1011D000BC012D010B011F016E616E00696E66007E
:0811E0006F7666000D0A0000A5
:00000001FF
